{
  "_format": "hh-sol-artifact-1",
  "contractName": "CrowdFunding",
  "sourceName": "contracts/CrowdFunding.sol",
  "abi": [
    {
      "anonymous": false,
      "inputs": [
        {
          "indexed": true,
          "internalType": "address",
          "name": "_from",
          "type": "address"
        },
        {
          "indexed": false,
          "internalType": "uint256",
          "name": "_value",
          "type": "uint256"
        }
      ],
      "name": "CampaignEvent",
      "type": "event"
    },
    {
      "anonymous": false,
      "inputs": [
        {
          "indexed": true,
          "internalType": "address",
          "name": "_from",
          "type": "address"
        },
        {
          "indexed": false,
          "internalType": "uint256",
          "name": "_value",
          "type": "uint256"
        }
      ],
      "name": "DonateEvent",
      "type": "event"
    },
    {
      "inputs": [
        {
          "internalType": "uint256",
          "name": "",
          "type": "uint256"
        }
      ],
      "name": "campaigns",
      "outputs": [
        {
          "internalType": "address",
          "name": "owner",
          "type": "address"
        },
        {
          "internalType": "string",
          "name": "title",
          "type": "string"
        },
        {
          "internalType": "string",
          "name": "description",
          "type": "string"
        },
        {
          "internalType": "uint256",
          "name": "target",
          "type": "uint256"
        },
        {
          "internalType": "uint256",
          "name": "deadline",
          "type": "uint256"
        },
        {
          "internalType": "uint256",
          "name": "amountCollected",
          "type": "uint256"
        }
      ],
      "stateMutability": "view",
      "type": "function"
    },
    {
      "inputs": [
        {
          "internalType": "address",
          "name": "_owner",
          "type": "address"
        },
        {
          "internalType": "string",
          "name": "_title",
          "type": "string"
        },
        {
          "internalType": "string",
          "name": "_description",
          "type": "string"
        },
        {
          "internalType": "uint256",
          "name": "_target",
          "type": "uint256"
        },
        {
          "internalType": "uint256",
          "name": "_deadline",
          "type": "uint256"
        }
      ],
      "name": "createCampaign",
      "outputs": [
        {
          "internalType": "uint256",
          "name": "",
          "type": "uint256"
        }
      ],
      "stateMutability": "nonpayable",
      "type": "function"
    },
    {
      "inputs": [
        {
          "internalType": "uint256",
          "name": "_id",
          "type": "uint256"
        }
      ],
      "name": "donateToCampaign",
      "outputs": [],
      "stateMutability": "payable",
      "type": "function"
    },
    {
      "inputs": [],
      "name": "getCampaigns",
      "outputs": [
        {
          "components": [
            {
              "internalType": "address",
              "name": "owner",
              "type": "address"
            },
            {
              "internalType": "string",
              "name": "title",
              "type": "string"
            },
            {
              "internalType": "string",
              "name": "description",
              "type": "string"
            },
            {
              "internalType": "uint256",
              "name": "target",
              "type": "uint256"
            },
            {
              "internalType": "uint256",
              "name": "deadline",
              "type": "uint256"
            },
            {
              "internalType": "uint256",
              "name": "amountCollected",
              "type": "uint256"
            },
            {
              "internalType": "address[]",
              "name": "donators",
              "type": "address[]"
            },
            {
              "internalType": "uint256[]",
              "name": "donations",
              "type": "uint256[]"
            }
          ],
          "internalType": "struct CrowdFunding.Campaign[]",
          "name": "",
          "type": "tuple[]"
        }
      ],
      "stateMutability": "view",
      "type": "function"
    },
    {
      "inputs": [
        {
          "internalType": "uint256",
          "name": "_id",
          "type": "uint256"
        }
      ],
      "name": "getDonators",
      "outputs": [
        {
          "internalType": "address[]",
          "name": "",
          "type": "address[]"
        },
        {
          "internalType": "uint256[]",
          "name": "",
          "type": "uint256[]"
        }
      ],
      "stateMutability": "view",
      "type": "function"
    },
    {
      "inputs": [],
      "name": "numberOfCampaigns",
      "outputs": [
        {
          "internalType": "uint256",
          "name": "",
          "type": "uint256"
        }
      ],
      "stateMutability": "view",
      "type": "function"
    }
  ],
  "bytecode": "0x6080604052600060015534801561001557600080fd5b5061182d806100256000396000f3fe6080604052600436106100555760003560e01c8063075843c31461005a57806307ca140d146100975780630fa91fa9146100c2578063141961bc1461010057806342a4fda814610142578063a6b036331461015e575b600080fd5b34801561006657600080fd5b50610081600480360381019061007c9190610ca8565b610189565b60405161008e9190610d6a565b60405180910390f35b3480156100a357600080fd5b506100ac6102eb565b6040516100b99190610d6a565b60405180910390f35b3480156100ce57600080fd5b506100e960048036038101906100e49190610d85565b6102f1565b6040516100f7929190610f2e565b60405180910390f35b34801561010c57600080fd5b5061012760048036038101906101229190610d85565b610401565b60405161013996959493929190610ff3565b60405180910390f35b61015c60048036038101906101579190610d85565b61056d565b005b34801561016a57600080fd5b5061017361071b565b6040516101809190611311565b60405180910390f35b60008060008060015481526020019081526020016000209050428160040154106101e8576040517f08c379a00000000000000000000000000000000000000000000000000000000081526004016101df906113a5565b60405180910390fd5b868160000160006101000a81548173ffffffffffffffffffffffffffffffffffffffff021916908373ffffffffffffffffffffffffffffffffffffffff1602179055508581600101908161023c91906115d1565b508481600201908161024e91906115d1565b50838160030181905550600081600501819055508281600401819055506001600081548092919061027e906116d2565b91905055508673ffffffffffffffffffffffffffffffffffffffff167f374ad1c1f51dd7eb12e3d73f02f3e89aa778b3c722ef911d5efda0ec56fb25bd856040516102c99190610d6a565b60405180910390a2600180546102df919061171a565b91505095945050505050565b60015481565b6060806000808481526020019081526020016000206006016000808581526020019081526020016000206007018180548060200260200160405190810160405280929190818152602001828054801561039f57602002820191906000526020600020905b8160009054906101000a900473ffffffffffffffffffffffffffffffffffffffff1673ffffffffffffffffffffffffffffffffffffffff1681526020019060010190808311610355575b50505050509150808054806020026020016040519081016040528092919081815260200182805480156103f157602002820191906000526020600020905b8154815260200190600101908083116103dd575b5050505050905091509150915091565b60006020528060005260406000206000915090508060000160009054906101000a900473ffffffffffffffffffffffffffffffffffffffff169080600101805461044a906113f4565b80601f0160208091040260200160405190810160405280929190818152602001828054610476906113f4565b80156104c35780601f10610498576101008083540402835291602001916104c3565b820191906000526020600020905b8154815290600101906020018083116104a657829003601f168201915b5050505050908060020180546104d8906113f4565b80601f0160208091040260200160405190810160405280929190818152602001828054610504906113f4565b80156105515780601f1061052657610100808354040283529160200191610551565b820191906000526020600020905b81548152906001019060200180831161053457829003601f168201915b5050505050908060030154908060040154908060050154905086565b60003490506000806000848152602001908152602001600020905080600601339080600181540180825580915050600190039060005260206000200160009091909190916101000a81548173ffffffffffffffffffffffffffffffffffffffff021916908373ffffffffffffffffffffffffffffffffffffffff1602179055508060070182908060018154018082558091505060019003906000526020600020016000909190919091505560008160000160009054906101000a900473ffffffffffffffffffffffffffffffffffffffff1673ffffffffffffffffffffffffffffffffffffffff16836040516106629061177f565b60006040518083038185875af1925050503d806000811461069f576040519150601f19603f3d011682016040523d82523d6000602084013e6106a4565b606091505b505090508015610715578282600501546106be9190611794565b82600501819055503373ffffffffffffffffffffffffffffffffffffffff167f4a738e144fcebc2a2453dde8472c2fe125988d7508d635d71a45886efcf500068460405161070c9190610d6a565b60405180910390a25b50505050565b6060600060015467ffffffffffffffff81111561073b5761073a610b47565b5b60405190808252806020026020018201604052801561077457816020015b610761610a5f565b8152602001906001900390816107595790505b50905060005b600154811015610a57576000806000838152602001908152602001600020905080604051806101000160405290816000820160009054906101000a900473ffffffffffffffffffffffffffffffffffffffff1673ffffffffffffffffffffffffffffffffffffffff1673ffffffffffffffffffffffffffffffffffffffff16815260200160018201805461080d906113f4565b80601f0160208091040260200160405190810160405280929190818152602001828054610839906113f4565b80156108865780601f1061085b57610100808354040283529160200191610886565b820191906000526020600020905b81548152906001019060200180831161086957829003601f168201915b5050505050815260200160028201805461089f906113f4565b80601f01602080910402602001604051908101604052809291908181526020018280546108cb906113f4565b80156109185780601f106108ed57610100808354040283529160200191610918565b820191906000526020600020905b8154815290600101906020018083116108fb57829003601f168201915b50505050508152602001600382015481526020016004820154815260200160058201548152602001600682018054806020026020016040519081016040528092919081815260200182805480156109c457602002820191906000526020600020905b8160009054906101000a900473ffffffffffffffffffffffffffffffffffffffff1673ffffffffffffffffffffffffffffffffffffffff168152602001906001019080831161097a575b5050505050815260200160078201805480602002602001604051908101604052809291908181526020018280548015610a1c57602002820191906000526020600020905b815481526020019060010190808311610a08575b505050505081525050838381518110610a3857610a376117c8565b5b6020026020010181905250508080610a4f906116d2565b91505061077a565b508091505090565b604051806101000160405280600073ffffffffffffffffffffffffffffffffffffffff168152602001606081526020016060815260200160008152602001600081526020016000815260200160608152602001606081525090565b6000604051905090565b600080fd5b600080fd5b600073ffffffffffffffffffffffffffffffffffffffff82169050919050565b6000610af982610ace565b9050919050565b610b0981610aee565b8114610b1457600080fd5b50565b600081359050610b2681610b00565b92915050565b600080fd5b600080fd5b6000601f19601f8301169050919050565b7f4e487b7100000000000000000000000000000000000000000000000000000000600052604160045260246000fd5b610b7f82610b36565b810181811067ffffffffffffffff82111715610b9e57610b9d610b47565b5b80604052505050565b6000610bb1610aba565b9050610bbd8282610b76565b919050565b600067ffffffffffffffff821115610bdd57610bdc610b47565b5b610be682610b36565b9050602081019050919050565b82818337600083830152505050565b6000610c15610c1084610bc2565b610ba7565b905082815260208101848484011115610c3157610c30610b31565b5b610c3c848285610bf3565b509392505050565b600082601f830112610c5957610c58610b2c565b5b8135610c69848260208601610c02565b91505092915050565b6000819050919050565b610c8581610c72565b8114610c9057600080fd5b50565b600081359050610ca281610c7c565b92915050565b600080600080600060a08688031215610cc457610cc3610ac4565b5b6000610cd288828901610b17565b955050602086013567ffffffffffffffff811115610cf357610cf2610ac9565b5b610cff88828901610c44565b945050604086013567ffffffffffffffff811115610d2057610d1f610ac9565b5b610d2c88828901610c44565b9350506060610d3d88828901610c93565b9250506080610d4e88828901610c93565b9150509295509295909350565b610d6481610c72565b82525050565b6000602082019050610d7f6000830184610d5b565b92915050565b600060208284031215610d9b57610d9a610ac4565b5b6000610da984828501610c93565b91505092915050565b600081519050919050565b600082825260208201905092915050565b6000819050602082019050919050565b610de781610aee565b82525050565b6000610df98383610dde565b60208301905092915050565b6000602082019050919050565b6000610e1d82610db2565b610e278185610dbd565b9350610e3283610dce565b8060005b83811015610e63578151610e4a8882610ded565b9750610e5583610e05565b925050600181019050610e36565b5085935050505092915050565b600081519050919050565b600082825260208201905092915050565b6000819050602082019050919050565b610ea581610c72565b82525050565b6000610eb78383610e9c565b60208301905092915050565b6000602082019050919050565b6000610edb82610e70565b610ee58185610e7b565b9350610ef083610e8c565b8060005b83811015610f21578151610f088882610eab565b9750610f1383610ec3565b925050600181019050610ef4565b5085935050505092915050565b60006040820190508181036000830152610f488185610e12565b90508181036020830152610f5c8184610ed0565b90509392505050565b610f6e81610aee565b82525050565b600081519050919050565b600082825260208201905092915050565b60005b83811015610fae578082015181840152602081019050610f93565b60008484015250505050565b6000610fc582610f74565b610fcf8185610f7f565b9350610fdf818560208601610f90565b610fe881610b36565b840191505092915050565b600060c0820190506110086000830189610f65565b818103602083015261101a8188610fba565b9050818103604083015261102e8187610fba565b905061103d6060830186610d5b565b61104a6080830185610d5b565b61105760a0830184610d5b565b979650505050505050565b600081519050919050565b600082825260208201905092915050565b6000819050602082019050919050565b600082825260208201905092915050565b60006110aa82610f74565b6110b4818561108e565b93506110c4818560208601610f90565b6110cd81610b36565b840191505092915050565b600082825260208201905092915050565b60006110f482610db2565b6110fe81856110d8565b935061110983610dce565b8060005b8381101561113a5781516111218882610ded565b975061112c83610e05565b92505060018101905061110d565b5085935050505092915050565b600082825260208201905092915050565b600061116382610e70565b61116d8185611147565b935061117883610e8c565b8060005b838110156111a95781516111908882610eab565b975061119b83610ec3565b92505060018101905061117c565b5085935050505092915050565b6000610100830160008301516111cf6000860182610dde565b50602083015184820360208601526111e7828261109f565b91505060408301518482036040860152611201828261109f565b91505060608301516112166060860182610e9c565b5060808301516112296080860182610e9c565b5060a083015161123c60a0860182610e9c565b5060c083015184820360c086015261125482826110e9565b91505060e083015184820360e086015261126e8282611158565b9150508091505092915050565b600061128783836111b6565b905092915050565b6000602082019050919050565b60006112a782611062565b6112b1818561106d565b9350836020820285016112c38561107e565b8060005b858110156112ff57848403895281516112e0858261127b565b94506112eb8361128f565b925060208a019950506001810190506112c7565b50829750879550505050505092915050565b6000602082019050818103600083015261132b818461129c565b905092915050565b7f446561646c696e652073686f756c642062652061206461746520696e2074686560008201527f2066757475726500000000000000000000000000000000000000000000000000602082015250565b600061138f602783610f7f565b915061139a82611333565b604082019050919050565b600060208201905081810360008301526113be81611382565b9050919050565b7f4e487b7100000000000000000000000000000000000000000000000000000000600052602260045260246000fd5b6000600282049050600182168061140c57607f821691505b60208210810361141f5761141e6113c5565b5b50919050565b60008190508160005260206000209050919050565b60006020601f8301049050919050565b600082821b905092915050565b6000600883026114877fffffffffffffffffffffffffffffffffffffffffffffffffffffffffffffffff8261144a565b611491868361144a565b95508019841693508086168417925050509392505050565b6000819050919050565b60006114ce6114c96114c484610c72565b6114a9565b610c72565b9050919050565b6000819050919050565b6114e8836114b3565b6114fc6114f4826114d5565b848454611457565b825550505050565b600090565b611511611504565b61151c8184846114df565b505050565b5b8181101561154057611535600082611509565b600181019050611522565b5050565b601f8211156115855761155681611425565b61155f8461143a565b8101602085101561156e578190505b61158261157a8561143a565b830182611521565b50505b505050565b600082821c905092915050565b60006115a86000198460080261158a565b1980831691505092915050565b60006115c18383611597565b9150826002028217905092915050565b6115da82610f74565b67ffffffffffffffff8111156115f3576115f2610b47565b5b6115fd82546113f4565b611608828285611544565b600060209050601f83116001811461163b5760008415611629578287015190505b61163385826115b5565b86555061169b565b601f19841661164986611425565b60005b828110156116715784890151825560018201915060208501945060208101905061164c565b8683101561168e578489015161168a601f891682611597565b8355505b6001600288020188555050505b505050505050565b7f4e487b7100000000000000000000000000000000000000000000000000000000600052601160045260246000fd5b60006116dd82610c72565b91507fffffffffffffffffffffffffffffffffffffffffffffffffffffffffffffffff820361170f5761170e6116a3565b5b600182019050919050565b600061172582610c72565b915061173083610c72565b9250828203905081811115611748576117476116a3565b5b92915050565b600081905092915050565b50565b600061176960008361174e565b915061177482611759565b600082019050919050565b600061178a8261175c565b9150819050919050565b600061179f82610c72565b91506117aa83610c72565b92508282019050808211156117c2576117c16116a3565b5b92915050565b7f4e487b7100000000000000000000000000000000000000000000000000000000600052603260045260246000fdfea26469706673582212208cb472e353ed4aa32e1f9240469394635872326a96ceeaf30bf3420e3472323564736f6c63430008110033",
  "linkReferences": {},
  "deployedLinkReferences": {}
}